:020000040800F2
:10000000004002209576010825770108F960010873
:1000100000000000000000000000000000000000E0
:10002000000000000000000000000000AB7E01089E
:100030000000000000000000C17F0108E560010829
:10004000257701082577010825770108257701081C
:10005000257701082577010825770108257701080C
:1000600025770108257701082577010825770108FC
:1000700025770108257701082577010825770108EC
:1000800025770108257701082577010825770108DC
:1000900025770108257701082577010825770108CC
:1000A00025770108257701082577010839610108BE
:0C00B000696101089961010825770108C9
:1000C00010B5064C2378002B07D1054B002B02D02E
:1000D000044800E000BF0123237010BD200A002067
:1000E0000000000030900208044B10B5002B03D034
:1000F0000349044800E000BF10BDC04600000000F6
:10010000240A00203090020802780B78002A03D0DD
:10011000013001319A42F7D0D01A70470023C25CF7
:100120000133002AFBD1581E7047000002B471460B
:1001300049084900095C49008E4402BC7047C0462A
:1001400003B47146490840004900095A49008E44E9
:1001500003BC7047002243088B4274D303098B42CF
:100160005FD3030A8B4244D3030B8B4228D3030C87
:100170008B420DD3FF22090212BA030C8B4202D329
:100180001212090265D0030B8B4219D300E0090A51
:10019000C30B8B4201D3CB03C01A5241830B8B425A
:1001A00001D38B03C01A5241430B8B4201D34B0343
:1001B000C01A5241030B8B4201D30B03C01A5241A8
:1001C000C30A8B4201D3CB02C01A5241830A8B422D
:1001D00001D38B02C01A5241430A8B4201D34B0216
:1001E000C01A5241030A8B4201D30B02C01A52417A
:1001F000CDD2C3098B4201D3CB01C01A524183092E
:100200008B4201D38B01C01A524143098B4201D367
:100210004B01C01A524103098B4201D30B01C01A92
:100220005241C3088B4201D3CB00C01A524183080C
:100230008B4201D38B00C01A524143088B4201D339
:100240004B00C01A5241411A00D201465241104699
:100250007047FFE701B5002000F0F0F802BDC0468E
:100260000029F7D076E7704703460B437FD400227E
:1002700043088B4274D303098B425FD3030A8B423A
:1002800044D3030B8B4228D3030C8B420DD3FF22A4
:10029000090212BA030C8B4202D31212090265D072
:1002A000030B8B4219D300E0090AC30B8B4201D325
:1002B000CB03C01A5241830B8B4201D38B03C01A6C
:1002C0005241430B8B4201D34B03C01A5241030BE3
:1002D0008B4201D30B03C01A5241C30A8B4201D394
:1002E000CB02C01A5241830A8B4201D38B02C01A3F
:1002F0005241430A8B4201D34B02C01A5241030AB6
:100300008B4201D30B02C01A5241CDD2C3098B429A
:1003100001D3CB01C01A524183098B4201D38B0117
:10032000C01A524143098B4201D34B01C01A5241BA
:1003300003098B4201D30B01C01A5241C3088B42FF
:1003400001D3CB00C01A524183088B4201D38B00EA
:10035000C01A524143088B4201D34B00C01A52418C
:10036000411A00D201465241104670475DE0CA0F63
:1003700000D04942031000D34042534000229C4623
:1003800003098B422DD3030A8B4212D3FC2289012D
:1003900012BA030A8B420CD3890192118B4208D303
:1003A000890192118B4204D389013AD0921100E065
:1003B0008909C3098B4201D3CB01C01A5241830979
:1003C0008B4201D38B01C01A524143098B4201D3A6
:1003D0004B01C01A524103098B4201D30B01C01AD1
:1003E0005241C3088B4201D3CB00C01A524183084B
:1003F0008B4201D38B00C01A5241D9D243088B42A1
:1004000001D34B00C01A5241411A00D20146634643
:1004100052415B10104601D34042002B00D54942A7
:10042000704763465B1000D3404201B5002000F0E6
:1004300005F802BD0029F8D016E770477047C0469E
:100440008446100062468C461900634600E0C046B0
:100450001FB501F02FFE002801D40021C8421FBDA6
:1004600010B501F07FFD4042013010BD10B501F024
:1004700021FE002801DB002010BD012010BDC04678
:1004800010B501F017FE002801DD002010BD01208D
:1004900010BDC04610B501F0A7FD002801DC00200A
:1004A00010BD012010BDC04610B501F09DFD002813
:1004B00001DA002010BD012010BDC04684460800AE
:1004C0006146FFE71FB500F065FB002801D400215D
:1004D000C8421FBD10B500F0F1FA4042013010BD16
:1004E00010B500F057FB002801DB002010BD0120F3
:1004F00010BDC04610B500F04DFB002801DD002006
:1005000010BD012010BDC04610B500F0FDFA002856
:1005100001DC002010BD012010BDC04610B500F068
:10052000F3FA002801DA002010BD012010BDC046FA
:10053000994201D1801A04D002D201204042704772
:1005400001207047002B11D1002A0FD1002900D1C2
:10055000002802D00021C943080007B4024802A1C4
:100560004018029003BDC046D5FEFFFF03B46846A5
:1005700001B5029800F0BCF8019B9E4602B00CBC8D
:100580007047C046F0B5CE469946030C9C4613040E
:1005900047461B0C1D000E0061460404240C80B568
:1005A0000700100C4B436543414360432C0CC018BB
:1005B00020188C46834203D980235B029846C444AA
:1005C000494679435643030C2D042D0C8919634485
:1005D00000044019C918C0BCB946B046F0BDC046B9
:1005E0009E2110B5C905041CFFF798FF002803D110
:1005F000201C00F001FE10BD9E21201CC90500F04A
:100600005BFC00F0F9FD80231B069C466044F2E78A
:1006100070B500220C4B04000D00FFF745FF0028C9
:1006200004D12000290002F00BFC70BD064B002213
:100630002000290002F064F802F002FC80231B066F
:100640009C466044F1E7C0460000E04170B50500FB
:100650000C000022002328002100FFF707FF0028DC
:1006600008D12800210000F00FF802000B00100054
:10067000190070BD80231B06E118280000F004F863
:10068000002342428B41F2E770B500220B4B0D0074
:10069000040001F073FDFFF7BBFF060002F036FC1B
:1006A0000022074B01F06AFD02000B002000290028
:1006B00002F026F8FFF7ACFF310070BD0000F03DFE
:1006C0000000F04170B50600080002F0EFFB0022C8
:1006D000064B01F053FD0D000400300002F016FC43
:1006E0002B00220000F0F0FD70BDC0460000F0417C
:1006F000F0B557464E464546DE46E0B504000D00CF
:100700009246994683B08B4230D82DD04946504608
:1007100002F00EFD29000600200002F009FD331A48
:100720009846203B34D49B4653465A469340424613
:100730001F00534693401E00AF423BD8AF4200D14A
:1007400079E05B46A41BBD41002B00DA76E0002275
:1007500000230092019301235A4693400193012301
:1007600042469340009329E08242CFD900220023E1
:10077000009201930C9B002B01D01C605D600098DF
:10078000019903B0F0BCBB46B246A946A046F0BDF5
:1007900042469B4620239B1A5246DA4041461300AC
:1007A0004A468A40170042461F43534693401E0064
:1007B000AF42C3D900220023009201934346002B8D
:1007C000D8D0FB0772081A4346467B080EE0AB42BE
:1007D00001D1A2420CD8A41A9D41012024196D41D7
:1007E0000021013E24184D41002E06D0AB42EED927
:1007F000013E24196D41002EF8D1009801995B4605
:1008000000196941002B24DB2B005A464446D34093
:100810002A00E2401C005B461500002B2ADB260064
:100820009E40330026004746BE403200801A994160
:10083000009001919EE7A342BCD882E74246202364
:1008400000219B1A0022009101920122DA400192BC
:1008500085E7424620239B1A2A0046469A402300F9
:10086000F340444613432A00E2401C005B46150057
:10087000002BD4DA42462F002023260097409B1AF3
:10088000DE403B003343CDE7F0B54F464646D64603
:100890004502C0B547000C1C6D0A3F0EC60F002F65
:1008A00000D16FE0FF2F00D174E000238022994631
:1008B0009A46ED00D20415437F3F63025B0A9846D7
:1008C00063001B0EE40F002B4DD0FF2B45D042469A
:1008D0008021D200C9041143884600227F3B3100A9
:1008E000FF1A4B466140C9B20F2B00D9B8E07048DF
:1008F0009B00C3589F4600239846260045469246D3
:100900005346022B00D18DE0032B00D1A1E0012B37
:1009100018D03B007F33002B6DDD6A0704D00F2217
:100920002A40042A00D004352A0103D5614B1D401A
:100930003B008033FE2B00DD74E0AA01520AD8B2DE
:1009400002E00E0000200022C005F60710433043ED
:10095000E0BCBA46B146A846F0BD4346002B3FD1A5
:100960000222FF3F03E04346002B2DD1012231003C
:100970004B466140C9B213430F2B38D84E489B00F9
:10098000C3589F46002D13D104239946033B0027EB
:100990009A4692E7002D05D108239946063BFF278A
:1009A0009A468AE70C239946093BFF279A4684E733
:1009B000280002F09FFB7627431F9D4000237F42C3
:1009C00099469A463F1A78E7404602F093FB424622
:1009D000431F9A4076235B4290461B1A00227EE713
:1009E00003234A461A439146FC33032277E70E005D
:1009F000FF200022A8E70122D31A1B2BA2DC9E377E
:100A00002A00BD40DA406B1E9D4115436A0704D0A1
:100A10000F222A40042A00D004356A0144D501205F
:100A2000002291E7FF2000228EE780220026FF208F
:100A3000D20389E7002398468022D203154208D0CA
:100A40004346134205D11A4352022600FF20520AA0
:100A50007AE78022D2032A435202FF20520A73E728
:100A600042466B015501AB421AD21B200022013FC6
:100A700001261C0052005B00002C01DB9D4201D8C6
:100A80005B1B324301380028F3D1581E83411343C6
:100A90001D003B007F330E00002B00DD3DE7AAE781
:100AA0001A2001225B1BE3E7AA010020520A4BE750
:100AB000D4C30208FFFFFFF714C4020870B5420058
:100AC00045024E024C00C30F6D0A0120120E760A39
:100AD000240EC90FFF2A06D0FF2C03D0A24201D159
:100AE000B54206D070BD002DFCD1FF2CFAD1002EEE
:100AF000F8D18B4206D00120002AF3D12800431EF2
:100B00009841EFE70020EDE770B5420045024E0244
:100B10004C00C30F6D0A120E760A240EC80FFF2A6E
:100B20001BD0FF2C0ED0002A1BD1002C01D1002E8F
:100B30001CD0002D0CD083421CD00221581E08402E
:100B4000013870BD002E22D1002AF4D1002DF2D13F
:100B50000028F6D101204042F3E7002D17D1FF2CE9
:100B6000F0D0002CE7D1002EE5D1E6E70020002DE3
:100B7000E7D0E2E7A24205DCEADBB54202D8E7D3E0
:100B80000020DEE74342584140000138D9E7022007
:100B90004042D6E770B5420045024E024C00C30FFA
:100BA0006D0A120E760A240EC80FFF2A0BD0FF2CF6
:100BB0000DD0002A1FD1002C16D1002E14D10020F8
:100BC000002D10D009E0002D0CD1FF2C13D1002EE8
:100BD00008D1002A08D0834212D00221581E0840B2
:100BE000013800E0022070BD002DF4D10028FAD1B8
:100BF00001204042F7E7002CEDD1002EEBD1ECE7CD
:100C0000A24205DCF2DBB54202D8EFD30020EAE7CE
:100C10004342584140000138E5E7C04643025B0AC1
:100C2000F0B54F4646469946D646C30F450098460E
:100C3000C0B54B460F1C2D0E00D1CBE0FF2D00D1CF
:100C4000CFE08022DB00D2041A4300239146002625
:100C50009A467F3D7C027B00640A1B0EFF0F002B2F
:100C600000D1A9E0FF2B11D08022E400D20414436C
:100C700042467F3B5B197A400020D2B25D1C0A2EAF
:100C800013DD3A000B2E47D047463FE02B00FF33E1
:100C9000002C1ED102221643424601357A40D2B2C0
:100CA000FF350A2E00DDE4E00220022E1CDC013EAE
:100CB000012E42D802283DD0012866D10020002113
:100CC000C0050843D2071043E0BCBA46B146A84667
:100CD000F0BD03221643424601357A40D2B2FF35B9
:100CE0000A2E00DDE4E003200121B140A626F60033
:100CF00031420AD19026B600314216D1B93EFF3EAC
:100D00000E421AD0A146824600E0170053463A0030
:100D1000022B0FD04C4650460328CDD18021C90369
:100D200021434902FF20490ACAE780210022FF200F
:100D3000C903C5E7FF200021C2E7200C494624046F
:100D4000240C27000E0C0904090C74434F4346433E
:100D50004843390C001909188C4203D980204002FD
:100D6000844666443F0408043F0CC0198401671E92
:100D7000BC41090C800E8919044389010C43090107
:100D800071D5012361081C400C432B007F33002BDD
:100D900051DD610704D00F212140042900D0043423
:100DA000210103D5434B1C402B008033FE2BC1DCBB
:100DB000A101490AD8B283E7002C2CD10123424675
:100DC0001E432B007A400120D2B25D1C0A2E00DDAA
:100DD00057E76AE7002B10D10123042600259A4625
:100DE00038E7002B04D102230826FF259A4631E775
:100DF00003230C26FF259A462CE7484602F07AF991
:100E00004A46431F76259A4000236D4291460026AC
:100E10009A462D1A1EE7200002F06CF94246431F45
:100E20009C402B1A763B7A400020D2B25D1C0A2EE1
:100E300000DD26E739E70121CB1A1B2B00DD3DE75A
:100E40009E352100AC40D940631E9C4121434B0795
:100E500004D00F230B40042B00D004314B0104D5E8
:100E6000012000212CE71D008FE789010020490A9D
:100E700026E702230F2E0CD180214B46C9030B42DB
:100E80000DD00C420BD1214349023A00FF20490A00
:100E900016E70B2E00D0F7E6A1469A4636E78021EA
:100EA0004B46C903194349024246FF20490A07E756
:100EB0000323DFE7FFFFFFF7F0B5C64643025B0AF7
:100EC0004500DA00C40F48024F009446420A1E0053
:100ED000904600B52D0E3F0EC90F8009FF2F59D047
:100EE000012251408C4239D0EA1B002A58DD002FE4
:100EF00068D0FF2D00D1D1E08023DB0418431B2AEA
:100F000000DCE3E001236246D31A5A0100D4ACE0CE
:100F10009B019E09300002F0EDF833000538834054
:100F2000854200DCC6E0B24A2D1A13405A0704D0AD
:100F30000F221A40042A00D004335A0100D497E04B
:100F40006A1CFE2D00D184E09B015E0AD2B2D0055E
:100F50003043E407204380BCB846F0BDEA1B002ABA
:100F600041DD002F6BD0FF2D00D197E08023DB0403
:100F700018431B2A00DCCCE0012363445A0174D5DA
:100F80000135FF2D65D001229A491A405B080B40BC
:100F90001343CBE700281FD08C4222D02A00FF3A0F
:100FA000002A35D07A1B002D00D099E06346002B33
:100FB00000D1DDE0531E012A00D105E1FF2A6BD0EC
:100FC0001A0094E0002873D0511E012A00D1DFE0FE
:100FD000FF2A63D00A0092E701225140A14200D0CB
:100FE00082E72A00FF3A002A36D07A1B002D00D172
:100FF000AAE0FF2F00D1DAE080236146DB04194329
:101000008C461B2A00DCD4E001233D001B18B5E709
:10101000FE276A1C174271D1002D00D09EE0634666
:10102000002B00D1D5E00022002800D18FE71B1A49
:101030005E0100D4D6E063460C00C31A76E70028B0
:1010400036D0511E012A00D19AE0FF2A26D00A008C
:101050008FE7FF2200267AE7FE276A1C174262D03C
:10106000FF2AF6D01500604443085A0700D05FE716
:10107000DB08FF2D12D05B025E0AEAB267E7624628
:10108000002A00D193E0002808D08022D203134226
:1010900004D04046104201D10C004346002BD8D06A
:1010A0008026F6031E437602FF22760A4FE7434668
:1010B0001500DEE72022401B0130121A1900934070
:1010C000C1405A1E934100250B432FE720239B1A52
:1010D000010098400300D1405A1E93410B4312E790
:1010E000FF2FD9D080236446DB041C43A4461B2A6F
:1010F00052DD01230C003D00C31A06E763461E1AA9
:10110000730139D4002E00D004E700240022002609
:101110001DE720239B1A010098400300D1405A1E6E
:1011200093410B4329E7002DA9D16346002B56D0EC
:101130000022002800D10AE7030063445A0194D535
:101140002B4A0135134090E76346002BAFD0531E66
:10115000012A15D0FF2A2AD01A0052E76246002A37
:1011600091D1002898D180260024FF22F603EEE6D4
:101170000C00434615007CE763460C00C61AC9E61E
:101180000300634401255A0100D46EE70225FAE604
:10119000634601251B1AB8E664462023D4409B1AF7
:1011A00062469A4013005A1E93412343A2E74346E6
:1011B00074E761462023D1409B1A62469A4013008F
:1011C0005A1E93410B4320E763460C000125C31AC6
:1011D0009BE6002899D00C0046460022B7E646461A
:1011E0000022B4E6002B00D03FE700240026AEE644
:1011F000FFFFFFFBFFFFFF7D41024200C30F490AD3
:101200000020120E7E2A03DD9D2A02DD094A98186D
:101210007047802000040143952A07DC9620821A3B
:10122000D1404842002BF3D10800F1E7963A9140B3
:10123000F7E7C046FFFFFF7F70B5041E0ED001F038
:1012400059FF9E2301001B1A962B0CDC08282CD07A
:1012500008398C406402640AD8B201E000200024FE
:10126000C005204370BD992B0ADD020020001B320F
:1012700090400200501E82410520401AC440144391
:10128000052916DC22000F480240650709D00F250A
:101290002C40042C05D00432540102D59F23024077
:1012A0005B1A9201540AD8B2DAE764029620640A03
:1012B000D6E74A1F94402200024802406507F0D05A
:1012C000E5E7C046FFFFFFFBF0B54F464646D64672
:1012D0000400C0B51F000B0310004E005B0ACD0FC9
:1012E000610F7A001943E3003C03FF0FBC46640A18
:1012F000470F2743760D520DC000B9468046B71AF6
:10130000654500D19BE0002F00DC84E0002A00D17D
:10131000BEE0C84A964200D124E180224C46120425
:101320001443A146382F00DD67E11F2F00DDD6E111
:1013300020224C46D21B9440A2464446FC4020004A
:101340005446044340469040421E90414A46FA406B
:101350000443891A1C1BA342924152428B1A9A469B
:1013600053461B0200D4D4E053465A02530A9A460D
:101370005346002B00D104E1504601F0BBFE0300B0
:10138000083B20222000D21A5146D040994002004A
:101390009C400A43B34200DA02E19B1B591C1F29FF
:1013A00000DDA7E02023100026005B1A9C40984037
:1013B000CE40CA40631E9C413043924600260443FF
:1013C000630709D00F232340042B05D0231DA3421C
:1013D000A4416442A2441C0053461B0200D49BE07B
:1013E000944B01369E4200D1B8E053469249E4083E
:1013F0000B4019005B07234372054C02240B520D6E
:101400001205ED0722432A4318001100E0BCBA463A
:10141000B146A846F0BD002F48D0971B002E00D043
:101420000EE10C001C4300D1B7E17C1E012F00D15E
:1014300026E2804DAF4200D1D5E1270007E1002F21
:1014400000DCB2E0002A47D07A4A964200D189E017
:1014500080224C4612041443A146382F6BDC1F2F08
:1014600000DC6EE13A004846203AD0408446202F06
:1014700007D040224846D21B90400200404610430D
:1014800080464046421E904162460400144357E0A5
:101490004A46024300D103E17A1E012F00D193E1B5
:1014A000644CA74200D18AE117003BE7634C721CF1
:1014B000224200D0E0E00A001A43002E00D074E17E
:1014C000002A00D1D0E14A46024300D0E3E14A07B6
:1014D000DB081343C90829E04A46024300D17DE1F5
:1014E0007A1E012F00D1E0E0524CA74200D166E104
:1014F0001700B2E710001F3BD840202903D040233B
:101500005B1A9A401443631E9C41002300269A46AE
:101510000443630700D055E75246E30852071343DC
:1015200052463700D108434A97421FD009037A0533
:101530000C0B520D64E742464C461443621E944124
:10154000E4189C429241524292468A4453461B02FE
:10155000DFD5384B01369E4200D0B3E03200002484
:1015600000234DE74A07DB081343C9081A000A4362
:1015700000D100E2802424030C4324032D4A240BD1
:101580003EE7200001F0B6FD030018331F2B00DCFE
:10159000F7E62200083882400024B34200DBFCE674
:1015A000F61A254B1A4092460AE7002F2BD0971BBC
:1015B000002E00D1B8E01F4CA24200D11CE18024D3
:1015C00024042143382F00DD1EE11F2F00DD9EE1A2
:1015D00020260C00F61B1800B340B440F8405E1EF5
:1015E000B341F94004431C438944444444459B416E
:1015F0005B424B449A461600A8E742464C461443C9
:10160000621E9441A6E60D4C721C224200D0A8E056
:101610000A001A43002E00D00AE1002A00D15EE140
:101620004A46024300D061E14A07DB081343C90878
:101630007CE7C046FF070000FFFF7FFFFE070000BA
:10164000CF4CA24200D1CEE0802424042143382F85
:101650005BDC1F2F00DDDCE020250C00ED1B1E00F5
:10166000AB40AC40FE405D1EAB413443F9401C43EF
:101670004B465B1A99464CE04A461C1A881AA3420C
:1016800092415242924602005046121A924612026B
:1016900078D45346234300D06AE60021002545E76D
:1016A0004A07DB081343C9083DE71C189C429B41CD
:1016B00049448A465B429A44534601261B0200D4A1
:1016C00027E702265246AF4B01211A401300214062
:1016D00062080A43DC075B089A46144370E63A0046
:1016E0004C46203AD440A446202F07D040224846FA
:1016F000D21B904002004046104380464046421EA6
:10170000904162460400144324E619430C00631E12
:101710009C4143461C1BA0459B4149465B42CB1A5A
:101720009A46654616001BE60C001C4300D1C7E034
:101730007C1E012F00D1F9E0914EB7425CD027000A
:1017400040E720224C464046D21B9440F8400443D8
:1017500040469040421E90414A46FA400443891850
:10176000EEE6874CA24200D1F9E6181898429B4158
:1017700049445B42CB18DC0740085B089A461600D8
:101780000443C6E64246D41AA04580414B46404237
:10179000591A0B1A9A466546EAE54B464A46C0086E
:1017A0005B0765460343D108BDE6002A00D08EE002
:1017B0004B46034317D1802100250903DAE64A0787
:1017C000DB081343C908D1E61C1A4A46A3429B41D1
:1017D000891A5B42CB1A9A460126C1E54A07DB0803
:1017E0001343C9089FE64346D8084B464A465B0761
:1017F00065460343D108B9E64346D8084B464A46F6
:101800005B070343D108B1E619430C00631E9C41FA
:10181000EBE63C000D00203CE540202F03D04024A7
:10182000E41BA1400B431C00631E9C412C4370E74A
:10183000002AE1D04A460243C1D04A07DB081343DD
:101840008022C9081203114208D04846C408144235
:1018500004D143462100DB08420713435A0FDB0043
:101860005207DB08134381E64B46034300D114E7DC
:101870004B464A46C0085B0765460343D10855E618
:10188000C41AA04580414B464042591A0B1A9A4649
:101890006546012664E51C1A4A46A34280418A1A1D
:1018A0004042121A9246120249D54246D41AA04525
:1018B00080414B464042591A0B1A9A4665467FE5CD
:1018C0004B464A46C0085B070343D1082BE64A460D
:1018D000DB08024338D14A071343C90846E64B46A2
:1018E0004A46C0085B070343D1081FE61C189C4208
:1018F0009B4149448A465B429A4453461B0200D4AA
:1019000007E652461F4B01261A40924601E63C006C
:101910000E00203CE640202F03D04024E41BA140D1
:101920000B431C00631E9C4134435EE643448342E8
:10193000804149448A4640421C008244BCE65346EA
:10194000234300D1A9E6E4E54A0713438022C908EE
:101950001203114209D04846C408144205D1434637
:1019600065462100DB08420713435A0FDB00DB0802
:1019700052071343FAE50023014A1C0040E5C04624
:10198000FF070000FFFF7FFFF0B557464E46454674
:10199000DE46E0B50C031F004B0081469246050071
:1019A00085B0240B5B0DCE0F002B00D152E1D24A43
:1019B000934200D16EE1420FE400144380221204EE
:1019C00022439046CD4AC50093469B440023994646
:1019D00000933C037B005046240B5B0DFF0F002B54
:1019E00000D11AE1C44A934200D15EE1420FE40003
:1019F0002243802424041443C04AC10094465A461A
:101A00006344D31A9B46002033007B409A464B46E2
:101A10000F2B27D8BA4A9B00D3589F46B246009B4B
:101A2000022B16D0032B00D187E2012B00D0D5E08A
:101A30000023002200251B0513435246D2071343FF
:101A40002800190005B0F0BCBB46B246A946A04626
:101A5000F0BD00220025A84BEDE7BA46A0460D00D8
:101A60000090DCE7444500D2C4E100D1BFE101238E
:101A70005B429C462E0040460025E34423020C0EA8
:101A80001C431B0C994623040A021F0C4946009272
:101A90000197FEF7E5FB02007A430B04310C804608
:101AA00019438A4207D901235B429C460919E04445
:101AB0008C4200D801E2881A4946FEF7D1FB019A10
:101AC000360442430904360C03000E43B24204D9E3
:101AD0003619013BB44200D8E9E1B01A4246009EF3
:101AE00012041A43330C1F00110C90460293130486
:101AF0003204160C32001B0C5A4303967B434E43B0
:101B00007943170CBC469B1963449E4203D9802637
:101B10007602B44661441E0C711816041B04360C80
:101B20009E19884202D312D1B54210D243465A1EA2
:101B3000009B9C4665441F009D429B415B421B19D4
:101B4000C018844200D29EE100D199E19046AE1BBC
:101B5000B542AD41401A6D42401B844200D1D2E1F2
:101B60004946FEF77DFB019A0B044243310C050008
:101B700019438A4200D96CE1881A4946FEF770FB86
:101B8000019A360442430904360C03000E43B24264
:101B900000D953E10398B61A02002D041D43029F99
:101BA0002B041B0C5A437B439C46290C4843130CC3
:101BB000844463447943984203D980204002844698
:101BC0006144180C12041B04120C40189B18864226
:101BD00000D200E100D1FBE001231D43494B5B44EF
:101BE000002B00DCAAE06A0700D03DE1E90842468C
:101BF000D20106D54246444B1A4080239046DB0072
:101C00005B44424A934200DD23E742465B055507A9
:101C100052020D43120B5B0D0DE75146214300D1DB
:101C20007CE0002C00D1FBE0200001F063FA020010
:101C30000B3A1D239B1A52460100DA4053460839DD
:101C40008B408C4019001443314B58449B468344CD
:101C50000020D9E603002343984644D0002C00D14D
:101C6000CFE0200001F046FA010002000B391D23ED
:101C70005B1A49461000D940083884400B004D4695
:101C8000234398468540234B9B1A9B460023994645
:101C900000939EE60200224390461DD108229B46F7
:101CA000022300259146009393E65146214309D132
:101CB00002234A461A43184B91469C4600240220B0
:101CC000E344A1E603234A461A43134B91469C463C
:101CD00051460320E34497E60C229B460323A0468B
:101CE0009146009375E60423994600239B460133F1
:101CF000002500936DE6C046FF07000001FCFFFFD2
:101D000054C40208FF030000FFFFFFFEFE070000AF
:101D1000F30300000DFCFFFF01F8FFFF4A4601231B
:101D20001A439146002401206EE6002380229A4641
:101D30000025884B12037EE601256D420122D21A4E
:101D4000382A00DD74E61F2A00DCBDE01F2149426D
:101D5000CB1A4146D9400B00202A04D041467E4A86
:101D60005A4491400D4329004A1E914119430723CB
:101D70001D0000220D400B4200D1D0E00F220023B5
:101D80000A40042A00D1C7E00A1D8A42894149421B
:101D90005B1811001A0200D4BEE0012300220025C6
:101DA00049E6802243461203134208D0144206D16A
:101DB00022431203BA460D00664B120B3BE680220B
:101DC000434612031A431203B246624B120B32E629
:101DD000002B00D102E7A6196A1EA64200D289E0B4
:101DE000864200D29FE000D1AFE01500F4E6A942A0
:101DF00000D93CE64346DE0758086B081E43ED0752
:101E00003CE601F077F901000200153120321C296F
:101E100000DC2CE74B46083883400025984632E723
:101E200001F068F903001A00153220301C2A00DC8A
:101E3000FFE65446083B00219C4005E73619013B6C
:101E4000B44200D9A6E6B24200D8A3E6831E3619F2
:101E5000A0E60919013D8C4200D98DE68A4200D8DE
:101E60008AE6851E091987E60F222A40042A00D136
:101E7000BCE6291DA942AD416D42C908A844B6E699
:101E8000AF4200D962E6814204D800D05EE6AE429D
:101E900000D85BE602235B429C46009BE0449C46E4
:101EA00065449D429B415B421B19C0184FE6B242FC
:101EB00000D812E6831E36190FE68A4200D8FAE5EA
:101EC000831E98460919F6E5244B28005B444146D9
:101ED0009D409940D0406B1E9D414346014329439C
:101EE000D3404A0700D155E70F220A40042A00D008
:101EF0004AE74FE71500864200D06DE6009A9A4205
:101F000000D069E66AE6164B5B44002B00DC13E761
:101F100001250021A8446AE65D075B021A0BC90887
:101F200000230D4387E50099023D4A008A42BF41E4
:101F30007F423F19F6190092DDE7802243461203E3
:101F40001A431203034B120B75E500999942EAD329
:101F50001500D3E7FF0700003E0400001E04000048
:101F6000FF030000F0B54E464546DE465746904614
:101F7000E0B517001A03120B0500844619480E033A
:101F80004C0091465A00DB0F9B46360B640DC90F7F
:101F9000520D844219D0824210D0012094420ED1B9
:101FA0004E450CD10120C44509D1594517D0002C0C
:101FB00005D130002843431E984100E00120F0BCC9
:101FC000BB46B246A946A046F0BD330001202B43D4
:101FD000F5D1A242F3D14B463B43F0D1E2E70020DA
:101FE000EDE7C046FF070000F0B54746CE460400C7
:101FF000180016001B031B0B2D4D4A00994680B597
:1020000043000F03A446B0463F0B520DC90F5B0DB2
:10201000C00FAA4221D0AB4213D0002A22D13C43A8
:10202000002B02D14D462E4322D0002C10D08142ED
:1020300022D00220013908400138C0BCB946B04660
:10204000F0BD4D462E4329D1002AF0D13C43EED1BC
:102050000028F2D101204042EFE73D0025431DD189
:102060009342EED0002BE2D14C462643DFD1E0E78D
:102070000020002CE1D0DCE79A420ADCE8DB4F4587
:10208000D7D80ED000204F45D7D20029E2D0080083
:10209000D3E74342584140000138CEE70220404296
:1020A000CBE7C445C5D80020C445C6D2EDE7C0463D
:1020B000FF070000F0B54746CE46040018001600A2
:1020C0001B031B0B2C4D4A00994680B543000F03A0
:1020D000A446B0463F0B520DC90F5B0DC00FAA427C
:1020E0000DD0AB4210D0002A27D13C43002B11D198
:1020F0004D462E430ED10020002C15D00EE03D00A1
:10210000254310D1934218D14D462E430BD1002ABE
:1021100002D13C43002C0BD0814214D00220013963
:102120000840013800E00220C0BCB946B046F0BD0E
:102130000028F9D101204042F6E7002BECD14C46B3
:102140002643E9D1EAE79A4204DD43425841400080
:102150000138E9E79A42EBDB4F45DFD806D0002093
:102160004F45E1D20029E5D00800DDE7C445D5D8C8
:102170000020C445D8D2F5E7FF070000F0B545467A
:10218000DE4657464E46E0B51F000B031B0B9B4631
:102190004D00CB0F04009146984687B06D0D00D1DD
:1021A000CDE1CE4B9D4200D1E9E15A46430FD2002A
:1021B0001343802212041A43C3009A46C84B934625
:1021C0009C4600230026654400933C037B00484660
:1021D000240B5B0DFF0F002B00D189E1BF4A934216
:1021E00019D0420FE4002243802424041443BC4A43
:1021F00000219446424663445B190193019B7A4057
:102200000133C000D2B202930A2E1CDD3A000B2E1D
:102210005ED0474656E04946B04B2143EB18019348
:1022200000292AD18020022200012B008446164377
:10223000424663447A40D2B202930A2E00DD31E274
:10224000002000240221022E26DC013E012E52D85D
:1022500002294CD0012900D018E1002300240025D8
:102260001B052343D20713432800190007B0F0BC15
:10227000BB46B246A946A046F0BD80210322090113
:102280002B008C461643424663447A40D2B20293F6
:102290000A2E00DD28E203210125B540AC46A62622
:1022A0006346F600354033420BD19026B6003342E8
:1022B00018D1B93EFF3E1E421DD0A3468246009172
:1022C00000E0170000993A00022910D05C46504601
:1022D0000329BFD180231B031C43240305007F4B2C
:1022E000240BBDE7802400227C4B2403B8E70024A4
:1022F00000257A4BB4E753461E04360C1F0C3300FE
:10230000010C0004000C4343984603007B439946AC
:1023100033004B439C4643460D001B0C9A467D43BD
:10232000CC44D4440095E14504D980235B0299460E
:102330004D44009563461B0C1D0063461B049C46E0
:1023400043461B041B0C9846634643440393230CEB
:10235000984633002404240C63439C4623007B43AB
:10236000994643465E435F434E446346B2461E0C65
:102370005644B14503D980235B0299464F44330C40
:1023800099463B004B4405936346AC461F043F0C03
:102390003604F619B444634604935B461B0C9C4612
:1023A0005B461F043F0C3B0043439946634643434F
:1023B0009A464B4660461B0C9B4648437943514422
:1023C00059448A4503D980235B029A4650440B0C3A
:1023D0009A464B461B041B0C99463B006343090479
:1023E00045464944994663465C436B439C464B468D
:1023F0001B0C98466F433F1947445044BC4203D9D5
:1024000080235B029846C444049B009D9846454443
:10241000B542B641734298464B461E04059B3C04A8
:102420009946360CA4194C44A14683466E18C14403
:102430008E428941CB445D4649426D189C42A4417D
:10244000C1459B41834580418D4289415B42644245
:102450001C434042039B4942014370023F0C184316
:10246000E419471EB84164186444F60D6102304314
:10247000EC0D6E020C433043C90100D4F1E00121A0
:10248000430801400B43E007184364081549029BC9
:102490008C466344002B00DC97E0410709D00F21F4
:1024A0000140042905D0011D814280414042241889
:1024B0000800E10106D58021C9008C460A4B1C406A
:1024C000029B634409498B4200DD10E76107C508A0
:1024D00064025B050D43240B5B0DC1E6FF070000A2
:1024E00001FCFFFFFF030000FFFFFFFEFE070000EF
:1024F0004B46234359D0002C00D1A3E0200000F02C
:10250000F9FD010003000B391D22521A494618003B
:10251000D1404A4608388240844010000C43744A37
:10252000EB1A9446424663440193019B7A4001337F
:102530000021D2B202930A2E00DD67E683E65B46F5
:1025400003439A462AD05B46002B6DD0584600F0D4
:10255000D1FD010003000B391D22521A2100180081
:102560005D46D140083885400A0084402A4393469E
:10257000A2465F4D0026ED1A0023009325E65B4638
:1025800003439A4605D100239B4602330826009355
:102590001BE6032382460C26009316E600239B4687
:1025A00001330426002500930FE6424601330195CE
:1025B0001E43019B7A400133002400200121D2B246
:1025C00002930A2E00DD21E63DE60121C91A3829D1
:1025D00000DD42E61F2947DD1F2625007642F31A5B
:1025E000DD402B00202905D04249029D8C466544E0
:1025F000AC402043411E8841184307231D0000249E
:10260000054003424AD00F2300240340042B42D04C
:10261000031D8342804140422418180023023AD50A
:102620000123002400251BE600F064FD01000300E7
:10263000153120331C298FDD083800228440924652
:10264000A34696E700F056FD010003001531203344
:102650001C2900DC58E702004C46083A0020944050
:102660005DE7019B029311E7234B26009C46030084
:10267000029DCB406544AE401E430300AB40581E54
:10268000834130001843CC404307C7D00F23034099
:10269000042BBDD1C2E765076402240BC0080023E8
:1026A0000543DDE5002502230F2E0CD180245B4677
:1026B000240323420ED021420CD10C4324033A00C0
:1026C0000E4B240BCCE50B2E00D0A2E58B46AA4680
:1026D0000093F7E580245B4624031C432403424611
:1026E0005546064B240BBBE54D4621000323DBE793
:1026F0000DFCFFFF3E0400001E040000FF07000069
:10270000F0B557464E464546DE46E0B50D0004009E
:10271000190010002B035B0A620F1A43E3000C033D
:10272000640A470F2743D04C6E00914683B04A009D
:10273000C0009846A246760DED0F520DC90F0190CC
:10274000A24200D1B9E0012461408B468D4200D104
:102750008DE0B41AA446002C00DCB7E0002A00D1BA
:10276000CBE0C14A964200D186E180221204174391
:102770006246382A00DDA4E11F2A00DD1DE2614621
:1027800020223C00521A010090409440421E904189
:102790006246A0466446D7404A46E1404446D21BC2
:1027A00091460C4304431C1BA34292414B465242A8
:1027B0009B1A9A4653461B0200D42BE153465A02F9
:1027C000530A9A465346002B00D166E1504600F06A
:1027D00091FC0300083B20222000D21A5146D04031
:1027E000994002009C400A439E4200DD64E19B1B2D
:1027F000591C1F2900DDFEE02023100026005B1A73
:102800009C409840CE40CA40631E9C413043924653
:1028100000260443630709D00F232340042B05D06F
:10282000231DA342A4416442A2441C0053461B0240
:1028300000D4F2E08C4B01369E4200D10FE15346AA
:102840008A49E4080B4019005B07234372054C02D8
:10285000240B520D12052243ED072A4318001100E4
:1028600003B0F0BCBB46B246A946A046F0BDB41AC0
:10287000A446002C59DD002A00D1B0E0564500D115
:10288000FAE08022120417436246382A00DDD4E0C1
:102890001F2A00DCC0E13900203AD1406246202ADC
:1028A00006D064464022121B3C009440044301942D
:1028B000019C621E94410C43C3E03C0004432BD0B6
:1028C0008B468D422ED06A4CA446B4446446002CFC
:1028D0005FD0941BA446002E00D020E14C461C4340
:1028E00000D1C7E161464C1E012900D123E25E4DB3
:1028F000AC4500D1D8E1A4461AE13A00024300D128
:10290000E4E02200013A012C00D1C3E156498C4297
:1029100000D1B1E094462BE7012461408B468D4203
:1029200000D016E752498C46B4446446002C00D1CE
:10293000D3E0911B8C46002E00D15EE14A498A42C9
:1029400000D1BEE180214C4609040C43A1466146FA
:10295000382900DDBAE11F2900DD27E22024641AAE
:102960004946A1401E0088466146A340CE404146EC
:102970005C1EA341314319430C0063464946D940CC
:102980007F18241884429B415B429A461600BA4441
:102990005DE0384C721C224200D0DFE04A461A4308
:1029A000002E00D05CE1002A00D1CFE13A000243C2
:1029B00000D17FE11C1A4A46A3428941D21B4942F9
:1029C000521A9246120200D40AE2C41AA04280416E
:1029D0004B464042FF1A3B1A9A465D461AE73A00B8
:1029E000024373D02200013A012C00D1CBE05445C0
:1029F00042D0944648E710001F3BD840202903D01E
:102A000040235B1A9A401443631E9C410023002616
:102A10009A460443630700D0FEE65246E308520795
:102A200013435246B446D2080F498C452AD01203AC
:102A3000140B62465205520D0CE73C000443621E23
:102A40009441E4189C42924152424A449246534671
:102A50001B02DFD5044B01369E4200D0A0E03200BD
:102A600000240023F6E6C046FF070000FFFF7FFFBB
:102A700001F8FFFFFE070000DB084A465207134338
:102A80004A46D2081900114300D1B5E1802424033D
:102A900014432403D54A240BDCE6200000F02AFB73
:102AA000030018331F2B00DC95E622000838824013
:102AB00000249E4200DC9AE6F61ACD4B1A4092465C
:102AC000A8E63C000443621E94416CE64A46DB08DB
:102AD000520713434A46D208A6E7C64C721C22424C
:102AE00000D0ACE04A461A43002E00D005E1002A8F
:102AF00000D156E13A00024300D1DBE01C189C42B1
:102B00009B414F44BA465B429A4453461B0200D451
:102B100080E75246B64B01261A4092467AE7B34CFC
:102B2000A24200D1C0E080244D4624042543A9469A
:102B30006446382C53DC61461F2C00DDCDE0202597
:102B40001E002D1B4C46AB40AC40CE405D1EAB4141
:102B5000344323434C46CC403F1B45E04A461C1AB5
:102B6000D11BA3429241524292460A005146521A48
:102B70009246120200D583E05346234300D021E65B
:102B80000022002553E71C189C429B414F44BA4643
:102B90005B429A44534601261B0200D43AE70226C0
:102BA0005246934B01211A401300214062080A4308
:102BB000DC075B089A4614432CE63900203AD140E2
:102BC0006246202A06D064464022121B3C009440F4
:102BD00004430194019C621E94410C43E3E5494681
:102BE00019430B005C1EA341C41AA0429B415B42E7
:102BF000FB1A9A465D461600DCE54946194300D1AA
:102C0000AEE0614664460139012C00D1E0E0774C2A
:102C1000A44556D08C469AE6614620223C00521AC2
:102C2000944001009040A0466446421E9041624696
:102C3000E1404446D7400C430443B94401E76B49A3
:102C40008A4200D10CE7181898429B414F445B42DE
:102C5000FB18DC0740085B089A4616000443D9E6D7
:102C6000002A00D081E03B0003431DD180220025D3
:102C700012030BE7C0087B075D460343FA08D3E65F
:102C8000C41AA04280414B464042FF1A3B1A9A4662
:102C90005D4697E51C1A4A46A3429B41D71B5B42FF
:102CA000FB1A9A46012685E5C0087B075D4603436B
:102CB000FA08E7E64A46DB08520713434A46D208B9
:102CC000B5E6C0087B070343FA08DBE6494619432B
:102CD0000B00591E8B411C0053E64D46203CE5403D
:102CE000202905D04024641A4946A1400B43984648
:102CF00043465C1EA3412B4376E7002AE1D03A000D
:102D0000DB08024300D1B8E64A4652078024134349
:102D10004A462403D208224207D0FE08264204D1A4
:102D20005D463200C3087F073B43590FDB0049076C
:102D3000DB080B43A6E6C41AA04280414B46404242
:102D4000FF1A3B1A9A465D46012633E53B000343D2
:102D500000D115E7C0087B075D460343FA0866E625
:102D6000C0087B070343FA085EE63A00DB0802432B
:102D700000D182E64A465207802413434A46240380
:102D8000D208224207D0FE08264204D15D46320016
:102D9000C3087F073B43590FDB00DB0849070B43A0
:102DA00070E6C0087B070343FA0840E64C4620392A
:102DB000CC406146202906D066464021891B4E46FC
:102DC0008E40334398464346591E8B411C43D8E5F9
:102DD0001C18844280414F44BA4640428244D9E69E
:102DE0005346234300D1CBE614E6C046FF0700005C
:102DF000FFFF7FFFFE0700000023014A1C0029E5BA
:102E0000FF07000070B505000C481C0316005B00AE
:102E10000A034900120B490D240B5B0D814208D0B7
:102E2000064A0020934203D120003043431E9841BC
:102E300070BD01202A43FBD1F2E7C046FF07000026
:102E40000A0030B5134C530009030500090B00209C
:102E50005B0DD20FA34204DD0F48834202DD0F4B0E
:102E6000D01830BD8020400301430D48C01A1F28F0
:102E700008DD0C48C31AD9400B005842002AF0D193
:102E80001800EEE7084CC540A446634499400B0087
:102E90002B43F2E7FE0300001D040000FFFFFF7F4D
:102EA0003304000013040000EDFBFFFF70B50028A1
:102EB00016D0C317C5185D40C40F280000F01AF9DA
:102EC000114B1B1A0A2816DC02002E001532964000
:102ED0000B22121AD5405B052D032D0B5B0D03E071
:102EE00000240023002500261B052B43E407234371
:102EF0003000190070BD0B3885405B052D0300269E
:102F00002D0B5B0DF0E7C0461E04000010B5041E3B
:102F100010D000F0EFF80F4B1B1A0A2811DC0B221F
:102F20002100121AD14015300A035B058440120BB0
:102F30005B0D01E0002300221B0513432000190054
:102F400010BD22000B3882405B0512030024120BD7
:102F50005B0DF1E71E04000070B542024300C40F90
:102F6000FE201B0E591C550A08420CD0E021890096
:102F70008C466D07120B63441B051343E407234380
:102F80002800190070BD002B14D1002D1BD0280083
:102F900000F0B0F80A281CDC0B232A001B1ADA40C8
:102FA000030015339D400E4B12031B1A5B05120BD9
:102FB0005B0DE1E7002D09D0130B802212031A43A9
:102FC0006D07084BD8E700230022D5E70022054B08
:102FD000D2E703002A000B3B9A400025E3E7C046F6
:102FE00089030000FF0700000200F0B54B000D034D
:102FF000400F5B0DCC0F6D0A3A490543581CD700B2
:1030000008420AD038495918FE2916DDFF2000224F
:10301000C0051043E4072043F0BD002B06D13D431B
:1030200026D005229201520AD8B2F1E72F43EDD003
:103030008022D203FF202A43EAE700291BDD920108
:10304000501E8241ED007F0F2A433A43530747D079
:103050000F231340042B00D004328023DB041340E1
:103060003ED0481CFE29D1D09201520AC0B2CFE70F
:1030700000200022CCE70A0017322FDB802636041E
:103080002E431E256D1A1F2D11DD02225242521AA7
:103090003100D140202D04D0144A944663449E4010
:1030A00037433A00531E9A410A430021CEE7104AA3
:1030B00038009446634498403A00411E88419E403F
:1030C000EA403043024300215307C1D1802113005D
:1030D000C90401200B400A42C6D1A3E70023A0E7A0
:1030E0000B009FE7FE07000080FCFFFFA2FCFFFF34
:1030F00082FCFFFF1C2101231B04984201D3000C1A
:1031000010391B0A984201D3000A08391B0998425A
:1031100001D30009043902A2105C40187047C04670
:103120000403020201010101000000000000000090
:1031300010B5002903D1FFF7DDFF203002E00800C1
:10314000FFF7D8FF10BDC04680B500AFBFF34F8F6B
:10315000C046044B044ADA60BFF34F8FC046C046F6
:10316000FDE7C04600ED00E00400FA0580B582B03E
:1031700000AF0200FB1D1A70FB1D1B78112B23D022
:10318000FB1D1B78052B1FD0FB1D1B78192B1BD09B
:10319000FB1D1B78172B17D0FB1D1B780F2B13D093
:1031A000FB1D1B781B2B0FD0FB1D1B78182B0BD086
:1031B000FB1D1B780E2B07D0FB1D1B78132B03D098
:1031C000FB1D1B78062B01D1462300E04723180086
:1031D000BD4602B080BD000080B582B000AF0200E5
:1031E000FB1D1A70FB1D1B785A1E05491300DB00DE
:1031F0009B1A5B005B5ADBB21800BD4602B080BD73
:1032000000000020F0B587B000AFB96011007B600E
:103210000F257B19021C1A700C26BB190A1C1A8078
:103220001523FC1828220823D318DB191B78180053
:10323000FFF7D2FF0300237017243B1901221A70F5
:103240007B191B78180014F0FFF8031E4CD07B1973
:103250001A782A4B9200D3587A681100180014F09B
:10326000B7FA031E40D11523FB181B781800FFF78F
:103270007DFF0300472B0ED17B191B78180014F03B
:10328000E3F83C19BB191A88BB6819001CF0A0FEB2
:103290000300237028E01623FB1800221A701AE09E
:1032A0000F23FB181B78180014F0CEF81723FC1816
:1032B000BB68012219001CF08BFE03002370BB6861
:1032C0000133BB60022017F033FD16217B181A78FA
:1032D0007B1801321A701623FB181B789BB20C2244
:1032E000BA1812889A42DBD80A2017F021FD17235A
:1032F000FB181B781800BD4607B0F0BD6C1C002001
:1033000080B500AF00F010F800F042F800F0ACF823
:1033100000F03AF900F046FA00F074FB00F0E8FC27
:10332000C046BD4680BD000080B582B000AFFB1D29
:1033300000221A70BB1D01221A7019E0BB1D1B78F8
:103340009BB2013398B2BB1D1B78013B5A000E4B58
:10335000D318190010F0C8F9BB1D1B78192B02D91E
:10336000FB1D0A221A70BB1D1A78BB1D01321A7090
:10337000064B1B78BA1D12789A42DFD9FB1D1B78C9
:103380001800BD4602B080BD9C2E0020A000002089
:1033900090B583B000AFFB1C00221A70BB1D002249
:1033A0001A803B0000221A807B1D00221A704BE01D
:1033B0003B1D01221A7033E0BB1D1B881C339BB2DE
:1033C0003A001100180010F08FF93B0018887B1D9F
:1033D0001A783B1D1978C4B2214813009B009B1832
:1033E0005B00C318221C5A543B001B881B0A98B26E
:1033F0007B1D1A783B1D1B78591EC4B21848130058
:103400009B009B185B00C318221C5A54BB1D1A88D2
:10341000BB1D01321A803B1D3A1D127802321A7010
:103420003B1D1B78092BC7D97B1D1A780C4913004B
:103430009B009B185B00CB18093300221A707B1D80
:103440001A787B1D01321A70064B1B787A1D127890
:103450009A42ADD9FB1C1B781800BD4603B090BD45
:103460004C110020A000002090B583B000AFFB1CE1
:1034700000221A70BB1D00221A803B0000221A8015
:103480007B1D00221A707B1D00221A7015E0BB1DE7
:103490001B88CB3398B27B1D1B785A00374BD3184F
:1034A000190010F021F9BB1D1A88BB1D01321A80CA
:1034B0007B1D1A787B1D01321A70314B1B787A1DE7
:1034C00012789A42E3D37B1D00221A704BE03B1D19
:1034D00001221A7033E0BB1D1B8899339BB23A005E
:1034E0001100180010F000F93B0018887B1D1A78B5
:1034F0003B1D1978C4B2234813009B009B185B0046
:10350000C318221C5A543B001B881B0A98B27B1D0F
:103510001A783B1D1B78591EC4B21A4813009B0031
:103520009B185B00C318221C5A54BB1D1A88BB1D74
:1035300001321A803B1D3A1D127802321A703B1D6F
:103540001B78092BC7D97B1D1A780E4913009B00E5
:103550009B185B00CB18093300221A707B1D1A7868
:103560007B1D01321A707B1D1B78092BAFD9FB1C08
:103570001B781800BD4603B090BDC04670110020F6
:10358000A0000020E0100020F0B589B002AF0B23AE
:10359000FB1800221A703B1D00221A80BB1C00225F
:1035A0001A8008217B1800221A80BB1D00221A8075
:1035B0001726BB1900221A7000233B610023FB6011
:1035C0000D007C183B1D1900E42010F08DF803005D
:1035D00023807B191B88002B03D13B1D1A88BB1944
:1035E0001A7008257C193B1D1900E52010F07CF8A5
:1035F00003002380BC1DBB1C1900E62010F074F8EA
:10360000030023807B191B88002B0AD1BB1D1B885C
:10361000002B06D13B1D1B881B04BA1C12889B186B
:103620003B6108257C193B1D1900E72010F05CF870
:1036300003002380BC1DBB1C1900E82010F054F8C7
:10364000030023807B191B88002B0AD1BB1D1B881C
:10365000002B06D13B1D1B881B04BA1C12889B182B
:10366000FB6008257C193B1D1900E92010F03CF88F
:10367000030023807B191B88002B0BD13B1D1B886B
:103680001B0A9BB2DAB2414B1A703B1D1B88DAB29F
:103690003F4B1A7008257C193B1D1900EA2010F0D9
:1036A00023F8030023807B191B88002B0BD13B1DC3
:1036B0001B881B0A9BB2DAB2364B1A703B1D1B8863
:1036C000DAB2354B1A7008257C193B1D1900EB2026
:1036D00010F00AF8030023807B191B88002B0BD104
:1036E0003B1D1B881B0A9BB2DAB22C4B1A703B1D88
:1036F0001B88DAB22A4B1A70244B1B78002B11D08E
:10370000234B1B78002B0DD0204B1D78204B1B78B2
:10371000FC6839691722BA18107800932B00220030
:1037200007F0B4FB1B4B1B78002B11D01A4B1B78F6
:10373000002B0DD0174B1D78174B1B78FC6839698F
:103740001722BA18107800932B00220007F09EFB76
:10375000124B1B78002B11D0114B1B78002B0DD076
:103760000E4B1D780E4B1B78FC6839691722BA186E
:10377000107800932B00220007F088FB0B23FB1826
:103780001B781800BD4607B0F0BDC0468913002065
:103790008A1300208B1300208C1300208D1300202F
:1037A0008E130020F0B585B000AF0F23FB18002268
:1037B0001A700C26BC1908257A198A235B0011009F
:1037C00018000FF091FF03002380BB191B88002B0A
:1037D0000CD17B191B88DAB2854B1A707B191B88B8
:1037E0001B0A9BB2DAB2824B5A7007E0814B1A78FF
:1037F0007F4B1A707F4B5A787D4B5A700C26BC1940
:1038000008257A198E235B00110018000FF06CFF59
:1038100003002380BB191B88002B0ED17B191B884A
:103820001BB29BB2DB0BDAB2714B1A717B191B888E
:103830005B089AB26E4BDA8007E06E4B1A796C4BDC
:103840001A716C4BDA886A4BDA800C257C190826D1
:10385000BA191623FF33110018000FF045FF0300BB
:1038600023807B191B88002B04D1BB191A88624B5B
:103870001A8003E0614B1A885F4B1A800C257C1973
:103880000826BA198B235B00110018000FF02CFFDB
:10389000030023807B191B88002B04D1BB191A88D5
:1038A000554B5A8003E0554B5A88534B5A800C268F
:1038B000BC1908257A191823FF33110018000FF0DE
:1038C00013FF03002380BB191B88002B0CD17B192D
:1038D0001B88DAB2484B1A717B191B881B0A9BB2F2
:1038E000DAB2454B5A7107E0444B1A79424B1A71D0
:1038F000424B5A79404B5A710C257C190826BA194B
:103900008C235B00110018000FF0EEFE03002380F3
:103910000A23FC18BA1D1A23FF33110018000FF0F8
:10392000E3FE030023807B191B88002B0ED10A23A2
:10393000FB181B88002B09D1BB191B881A00BB1D63
:103940001B881B041A432C4B9A600CE02C4B1B78F1
:10395000002B04D0284BE12252029A6003E0274B4F
:103960009A68254B9A600C26BC1908257A198D2374
:103970005B00110018000FF0B7FE03002380BB1995
:103980001B88002B0CD17B191B88DAB21A4B1A73D7
:103990007B191B881B0A9BB2DAB2174B5A7305E0DE
:1039A000154B18225A73144B00221A730C257C19DC
:1039B0000826BA191C23FF33110018000FF094FEDB
:1039C000030023807B191B88002B05D1BB191B88A2
:1039D000DAB2094B9A7603E0084B9A7E064B9A7648
:1039E0000F23FB181B781800BD4605B0F0BDC0467C
:1039F0005010002038000020581000201C0000202B
:103A000088130020F0B5D6464F464646C0B588B06C
:103A100006AFBB1D00221A703B0000221A803B1D1E
:103A200000221A80FB1C00221A70FB1D00221A7053
:103A30004CE1FB1D1B783B339BB29B009BB23C1DB2
:103A40003A00110018000FF04FFE030023803B1DC9
:103A50001B88002B00D034E13B001B881B0A9AB264
:103A6000FB1C1A70FB1C1B781B09DBB21A00FB1D28
:103A70001B7801339A4200D023E1FB1C1B780F22F4
:103A8000134000D11DE1FB1D1B785A1CFB1C1B7849
:103A90000F210B40D8B295491300DB009B18CB18BF
:103AA0000133021C1A703B001988FB1D1B785A1C3D
:103AB000C8B28E491300DB009B18CB180833021CD8
:103AC0001A70FB1D1B783B339BB29B009BB20133EA
:103AD0009BB23A00110018000FF006FE3B001B8855
:103AE0001B0A99B2FB1D1B785A1CC8B27F491300F0
:103AF000DB009B18CB180233021C1A703B0019889C
:103B0000FB1D1B785A1CC8B278491300DB009B18B8
:103B1000CB180533021C1A70FB1D1B783B339BB27C
:103B20009B009BB202339BB23A00110018000FF0C9
:103B3000DBFD3B001B881B0A99B2FB1D1B785A1C3E
:103B4000C8B26A491300DB009B18CB180333021C70
:103B50001A703B001988FB1D1B785A1CC8B26349B8
:103B60001300DB009B18CB180633021C1A70FB1DD8
:103B70001B783B339BB29B009BB203339BB23A0052
:103B8000110018000FF0B0FD3B001B881B0A99B212
:103B9000FB1D1B785A1CC8B254491300DB009B184C
:103BA000CB180433021C1A703B001988FB1D1B78CC
:103BB0005A1CC8B24D491300DB009B18CB180733C1
:103BC000021C1A70FB1D1B785A1C48491300DB00AD
:103BD0009B18CB1801331A78FB1D1B780133DBB21D
:103BE0001900100011F008F8FB1D1B780133DBB23F
:103BF0009C46FB1D1B785A1C3C491300DB009B189C
:103C0000CB1808331B7801221340DBB29846FB1D0A
:103C10001B785A1C35491300DB009B18CB1808335E
:103C20001B785B10DBB201221340DBB29946FB1D0F
:103C30001B785A1C2D491300DB009B18CB1802334C
:103C40001B789A46FB1D1B785A1C28491300DB0081
:103C50009B18CB1803331978FB1D1B785A1C23487B
:103C60001300DB009B18C31804331878FB1D1B7866
:103C70005A1C1E4C1300DB009B18E31805331C78FC
:103C8000FB1D1B785A1C194D1300DB009B18EB1809
:103C900006331D78FB1D1B785A1C144E1300DB00E5
:103CA0009B18F31807331B780022059204930395A1
:103CB00002940190009153464A464146604611F0F5
:103CC000CFF9FB1D1A78FB1D01321A70FB1D1B7802
:103CD000052B00D8ADE6BB1D1B781800BD4602B011
:103CE000E0BCBA46B146A846F0BDC046E42B002071
:103CF00090B585B000AF0F23FB1800221A706F4BF0
:103D0000BB6032201EF0CCFE03003B603B68002B02
:103D100001D1FB23CEE0BB681B78FE2B01D0FF2333
:103D2000C8E0FB1D00221A70B8E00F23FB18002228
:103D30001A7010E0BB685A1CBA6019000F203B18BB
:103D40001B783A68D3180A78D2B21A703B181A78DE
:103D50003B1801321A700F243B191B78132BE9D939
:103D6000FB1D1A7813009B009B189B00544A98185F
:103D70003B6801331422190020F0C5FB3B68142274
:103D80000021180020F093FA3B1900221A70BB683A
:103D90001433BB600FE0BA680F203B181B783968FA
:103DA000CB1812781A70BB680133BB603B183A1805
:103DB000127801321A70BB681B78FE2B08D0BB68E2
:103DC0001B78FF2B04D00F23FB181B78312BE2D973
:103DD0000F217B181B78013B3A68D3181B78002B06
:103DE00004D07B187A18127801321A700F23FB184E
:103DF0001A78FB1D1C7810001EF052FE03001900FB
:103E00002F4A23009B001B199B00D3180C33196009
:103E1000FB1D1A782A4913009B009B189B00CB18A6
:103E20000C331B68002B12D1FB1D1A7813009B006A
:103E30009B189B00224A9B1814220021180020F096
:103E400036FA3B6818001EF035FE0E2332E0FB1DEB
:103E50001A781B4913009B009B189B00CB180C334E
:103E600018680F243B191A783B68190020F04BFBA7
:103E7000144B1B780133DAB2124B1A703B191A78C3
:103E80003B680021180020F012FABB681B78FE2B5B
:103E90000AD1FB1D1A78FB1D01321A70FB1D1B781D
:103EA000042B00D841E700E0C0463B6818001EF034
:103EB00001FE00231800BD4605B090BD00100408A7
:103EC000E81300204C14002080B582B000AFFB1D29
:103ED00000221A70BB1D01221A7021E0BB1D1B7845
:103EE0005A1E154B5200D35A002B0DD0BB1D1B7808
:103EF0009BB2013398B2BB1D1B785A1E0E4B520069
:103F0000D35A19000FF050FCBB1D1B78192B02D996
:103F1000FB1D0A221A70BB1D1A78BB1D01321A70D4
:103F2000064B1B78BA1D12789A42D7D9FB1D1B7815
:103F30001800BD4602B080BD9C2E0020A0000020CD
:103F400090B583B000AFFB1C00221A70BB1D00228D
:103F50001A803B0000221A807B1D00221A7048E064
:103F60007B1D1A78294913009B009B185B005B5C42
:103F7000002B39D03B1D01221A7031E07B1D1A78CD
:103F80003B1D1B78591E214813009B009B185B00AA
:103F9000C3185B5C9BB21B0299B27B1D1A783B1D58
:103FA00018781A4C13009B009B185B00E3181B5CED
:103FB0009AB23B008A181A80BB1D1B881C339AB228
:103FC0003B001B88190010000FF0EEFBBB1D1A8888
:103FD000BB1D01321A803B1D3A1D127802321A7045
:103FE0003B1D1B78092BC9D97B1D1A787B1D01321B
:103FF0001A70074B1B787A1D12789A42B0D9FB1CB5
:104000001B781800BD4603B090BDC0464C1100207F
:10401000A0000020F0B587B000AFB9607A60190049
:104020000F243B19021C1A700E257B190A1C1A70EA
:104030001726BB1900221A703B191B789BB2190076
:10404000E4200FF0B1FBBB681B0A9BB21900E5200E
:104050000FF0AAFBBB689BB21900E6200FF0A4FB8F
:104060007B681B0A9BB21900E7200FF09DFB7B6861
:104070009BB21900E8200FF097FB7B191B789BB2CD
:104080001B029AB2202310241B19DB191B789BB248
:10409000D3189BB21900E9200FF086FB24231B19CB
:1040A000DB191B789BB21B029AB228231B19DB1960
:1040B0001B789BB2D3189BB21900EA200FF074FB57
:1040C0002C231B19DB191B789BB21B029AB23023DD
:1040D0001B19DB191B789BB2D3189BB21900EB207C
:1040E0000FF062FBBB191B781800BD4607B0F0BD8E
:1040F00080B582B000AFFB1D00221A70384B5B7890
:104100005B011AB2364B1B781BB213431BB29AB237
:104110008A235B00110018000FF046FB304B1B791F
:10412000DB031AB22E4BDB881BB213431BB29AB2CD
:104130008E235B00110018000FF036FB294B1A8804
:104140001623FF33110018000FF02EFB254B5A8861
:104150008B235B00110018000FF026FB214B5B79CD
:104160001B021AB21F4B1B7B1BB213431BB29AB22A
:104170001823FF33110018000FF016FB194B9B6832
:104180009AB28C235B00110018000FF00DFB154B49
:104190009B681B0C9AB21A23FF33110018000FF012
:1041A00003FB104B5B7B1B021AB20E4B1B791BB23D
:1041B00013431BB29AB28D235B00110018000FF05D
:1041C000F3FA084B9B7E9AB21C23FF3311001800B0
:1041D0000FF0EAFAFB1D1B781800BD4602B080BD47
:1041E000501000205810002080B582B000AFFB1D99
:1041F00000221A701B4B04220021180020F057F8EF
:10420000BB1D01221A7021E0BB1D1B785A1E154BE5
:104210005200D35A002B0DD0BB1D1B789BB201332B
:1042200098B2BB1D1B785A1E0E4B5200D35A190070
:104230000FF0BAFABB1D1B78192B02D9FB1D0A22FD
:104240001A70BB1D1A78BB1D01321A70064B1B7801
:10425000BA1D12789A42D7D9FB1D1B781800BD46AB
:1042600002B080BD9C2E0020A000002080B500AFD1
:10427000074B1B68074A934206D00FF0C7FA031E8C
:1042800002D1034B034A1A60C046BD4680BDC046FA
:10429000F07F0020ADDEEFBEB0B58EB002AF1423CC
:1042A000F8180A257A191823F9180823FB1800931F
:1042B000030001200FF038FF0C23F818BA1D10235B
:1042C000F9183B1D0093030002200FF02DFF1C2165
:1042D0007B1801225A607B1800229A607B191B8888
:1042E0001A007B181A60BB691A000C007B181900B1
:1042F000100018F0CFFC21007B1800225A607B18B8
:1043000002229A603B1D1B881A007B181A60FB680A
:104310001A007B181900100018F0BCFCBB691800CB
:104320007B191B880022190018F015FF052012F0D8
:1043300039FCFB681A003B1D1B881900100018F09F
:10434000EDFE031E17D1BB6918007B191B880122E3
:10435000190018F000FF052012F024FCFB681A0079
:104360003B1D1B881900100018F0D8FE0300012B1C
:1043700001D1012300E000231800BD460CB0B0BD00
:1043800090B585B000AF78600F23FB1800221A703B
:104390001CE00F243B191A78114913005B009B188D
:1043A0009B00CB1808331A687B6811001800FBF7D4
:1043B000ABFE031E04D13B191B780133DBB20BE0CB
:1043C0000F217B181A787B1801321A700F23FB1803
:1043D0001B78002BDDD000231800BD4605B090BD32
:1043E0005402002080B584B000AF78600F23FB1822
:1043F00000221A7041E0264A7B6811001800FBF782
:1044000083FE031E01D101233DE0224A7B68110097
:104410001800FBF779FE031E01D1022333E01E4A88
:104420007B6811001800FBF76FFE031E01D1032308
:1044300029E01A4A7B6811001800FBF765FE031E8D
:1044400001D104231FE0164A7B6811001800FBF716
:104450005BFE031E01D1052315E0124A7B681100A3
:104460001800FBF751FE031E01D106230BE00F21BC
:104470007B181A787B1801321A700F23FB181B78EF
:10448000052BB8D900231800BD4604B080BDC04636
:10449000389602083C9602084096020844960208A4
:1044A000489602084C96020890B583B000AFFB1DF9
:1044B00001221A7020E0574B1B78FA1D12789A429D
:1044C00006D1FB1D1B78013B534A0021D1540EE05D
:1044D000504B1A78FB1D1B785C1EFB1D1B781900C6
:1044E000100000F081FA03001A004B4B1A55FB1D17
:1044F0001A78FB1D01321A70FB1D1B78022BDAD9CA
:1045000011F046FF12F000F90EF0ACFD0FF052FC76
:104510000EF074F912F040F90EF0C0FC12F0E2FA5D
:104520000FF054FD031E03D0FFF7A0FEFEF70CFEB4
:10453000FFF7B2FE031E21D0384B01221A70322041
:1045400012F030FB0DF0A0FC354BE12252029A60D4
:10455000BB1D01221A700CE0314B9A68BB1D1B7801
:104560001100180012F050FFBB1D1A78BB1D01325C
:104570001A70BB1D1B78052BEED904E0322012F017
:1045800011FB0DF081FCFEF7BBFE0EF0D7F9214BBD
:104590001B78002B11D1234B01228021180018F029
:1045A000DAFDFA235B00180012F0FCFA1D4B002222
:1045B0008021180018F0CFFD22E01A4B0122802143
:1045C000180018F0C8FDFA235B00180012F0EAFA90
:1045D000144B00228021180018F0BDFD642012F059
:1045E000E1FA104B01228021180018F0B4FD64207C
:1045F00012F0D8FA0B4B00228021180018F0ABFD06
:1046000005F0F0FF084B01221A70C046BD4603B00A
:1046100090BDC046A1000020900A00208813002011
:1046200058100020000400500113002080B500AF96
:1046300016F0F8FA0DF0C4F8FFF736FF05F0F6FFB4
:1046400013F084F8C046BD4680BD0000F0B58DB0C3
:1046500000AF1F23F918087069460E0013211823B4
:10466000CB18D9190020087017211823CB18D91995
:104670000020087016211823CB18D91900200870C3
:1046800015201823C318D9190020087014201823E6
:10469000C318D91900200870D049097808000138DA
:1046A00078623961002078613A697B691000400FB7
:1046B0003A617B61DD0005433B69DC003960002025
:1046C00078603C687D682300580F2B00DB00FB609E
:1046D000FB680343FB602300DB00BB600B00073378
:1046E000DB08DB006A46D31A9D466B4600333B620B
:1046F00016211823CB18DB1900221A7018E0162097
:104700001823C318DB191B783A6A0021D1541823E7
:10471000C318DB191A78B24B52000021D15218236A
:10472000C318DB191A781823C318DB1901321A7061
:10473000AA4B1B78162218215218D21912789A42C5
:10474000DDD315211823CB18DB1918228A18D219AA
:10475000127801321A701F23FB181B78013B3A6A4A
:10476000080018240919C9190978D1541823C31845
:10477000DB1918228218D219127801321A70172305
:1047800018229B18DB1901221A7050E01F23FB1816
:104790001B785A1E17241823E318DB19187891493F
:1047A0001300DB009B1A1B185B005B5A002B34D0F4
:1047B0001F23FB181B785A1E894B5200D35A1AB27A
:1047C00020001823C318DB191B78013B01219940F5
:1047D0000B001BB2134319B21F23FB181B785A1E80
:1047E00089B27F4B5200D1521F23FB181B785A1EEF
:1047F0001823C318DB1918787A491300DB009B1AB9
:104800001B185B005B5ADB089BB2013B3A6A15211F
:1048100018200918C9190978D15417211823CB1861
:10482000DB191A781823CB18DB1901321A701723F9
:1048300018229B18DB191B78062BA7D914231822E2
:104840009B18DB1900221A7015221823D318DB19C4
:1048500018215218D219127801321A701623182210
:104860009B18DB1900221A709BE0162318229B1854
:10487000DB191B783A6AD35C1A00152318215B18E0
:10488000DB191B78013B9A4200D080E017231822E5
:104890009B18DB1901221A7072E016241823E31802
:1048A000DB191A7817251823EB18DB1918784D49EE
:1048B0001300DB009B1A1B185B005B5A002B55D0C2
:1048C0001823E318DB191A781823EB18DB1918786A
:1048D00044491300DB009B1A1B185B005B5ADB0882
:1048E0009BB2013B3A6AD35C002B3FD120001823D6
:1048F000C318DB191A783A4B5200D35A1AB22C005B
:104900001823E318DB191B78013B012199400B00A8
:104910001BB2134319B21823C318DB191A7889B2D2
:104920002F4B5200D1521823C318DB191A781823C1
:10493000E318DB1918782B491300DB009B1A1B18AE
:104940005B005B5ADB089BB2013B3A6A15211820D9
:104950000918C9190978D15414221823D318DB195E
:1049600018215218D219127801321A7017211823FF
:10497000CB18DB191A781823CB18DB1901321A70FF
:10498000172318229B18DB191B78062B85D91621B3
:104990001823CB18DB191A781823CB18DB1901322E
:1049A0001A700E4B1B78162218215218D219127841
:1049B0009A4200D259E7142318229B18DB191B785E
:1049C000002B00D03AE7132318229B18DB191B7821
:1049D000B5461800BD460DB0F0BDC046A000002091
:1049E000A810002000000020B0B588B000AF020081
:1049F000FB1D1A70BB1D0A1C1A700823FB1800222D
:104A00001A800B23FB1800221A701F23FB180022A8
:104A10001A700A23FB1800221A701E23FB180022AA
:104A20001A70994B0222002118001FF040FCFB1D58
:104A30001B78013B954A0021D154FB1D1B78013B9B
:104A4000934A0021D1540123BB612EE0FB1D1B784A
:104A50005A1E90491300DB009B1ABA699B185B0031
:104A60005B5A002B1ED0FB1D1B785A1E8949130070
:104A7000DB009B1ABA699B185B005B5ADB089AB291
:104A8000BB1D1B789BB29A420CD1BB1D1B78013B0E
:104A90007E4A0121D1547C4BBA1D12781A70BB6931
:104AA000DBB2EDE0BB690133BB61BB69062BCDDD39
:104AB00001237B6111E0FB1D1B787A699A4209D0C2
:104AC0007B69013B714AFF21D1547B69013B704AEC
:104AD0000021D1547B6901337B616F4B1B781A0035
:104AE0007B699342E7DD73E008243A19674B1100B4
:104AF000180000F0D3F803001A001F217B180132C0
:104B00001A707A18BB1D12781B789A4268D07B18ED
:104B10001B78013B3A190121D1541323FB180122C0
:104B20001A7050E01F243B191B785A1E13257B195D
:104B3000187858491300DB009B1A1B185B005B5A5E
:104B4000002B3AD03B191B785A1E7B191878514913
:104B50001300DB009B1A1B185B005B5ADB089AB240
:104B60000A217B181A707B181B78013B0822BA189F
:104B7000D35C002B21D13B191B78013B434AD25C0B
:104B80000B203B1801321A707B181B78013B3F4AFF
:104B9000D35C05003A1812789A420ED208007B18AE
:104BA0001B78013B394A79190978D1543B181B7895
:104BB000013B374A39190978D15413217B181A78E7
:104BC0007B1801321A701323FB181B78062BA9D906
:104BD0000823FB18180000F0A5F8031E84D000E09D
:104BE000C04613E01E22BB181B78BA18591C11705E
:104BF0001900254B1F203A1812785A5401007B18CF
:104C00001B785A1E7B1822498A5C1A701F23FB18D6
:104C10001B78013B1E4AD35C002BE3D10123FB60D0
:104C20002AE0FB1D1B785A1E1A491300DB009B1A51
:104C3000FA689B185B005B5A002B1AD0FB1D1B788F
:104C40005A1E14491300DB009B1AFA689B185B007C
:104C50005B5ADB089AB2BB1D1B78013B0B49CB5C4E
:104C6000013B0949CB5C9BB29A4202D1FB68DBB2A3
:104C700006E0FB680133FB60FB68062BD1DD0023F7
:104C80001800BD4608B0B0BDDC1C00204411002057
:104C90004811002000000020A000002080B584B052
:104CA00000AF786039600F217B18FF221A700E2345
:104CB000FB1800221A703B681B78002B03D17B186D
:104CC0007A6812781A700023BB601BE0BB687A68B0
:104CD000D3181B780F217A1812789A420FD9BB6823
:104CE0003A68D3181B78002B09D1BB687A68D218B0
:104CF0007B1812781A700E23FB18BA681A70BB68FA
:104D00000133BB60064B1B781A00BB689342DDDBA6
:104D10000E23FB181B781800BD4604B080BDC046AA
:104D2000A000002080B584B000AF78600F23FB188E
:104D300001221A700023BB600CE0BB687A68D318AC
:104D40001A780F217B18791809780A401A70BB6805
:104D50000133BB60064B1B781A00BB689342ECDB47
:104D60000F23FB181B781800BD4604B080BDC04659
:104D7000A0000020F0B587B002AF0200FB1D1A7042
:104D8000834A844B110018001FF012FA814B18005F
:104D9000FBF7C4F903009AB27E49FB1D1878012382
:104DA0005B420093322312F09DFA0F23FB1801227D
:104DB0001A701BE00F243B191A787749754B1800BD
:104DC0001FF0F6F9734B1800FBF7A8F903009AB22D
:104DD0007049FB1D187801235B420093322312F0C7
:104DE00081FA3B191A783B1901321A700F23FB180C
:104DF0001B78052BDED96949FB1D187801235B421E
:104E000000933223032212F06DFA0E23FB180022C6
:104E10001A70A7E00E243B191B785A1C60495D4BA1
:104E200018001FF0C5F95B4B1800FBF777F903007A
:104E30009AB25849FB1D187801235B420093322334
:104E400012F050FA3B191A7856491300DB009B1AEE
:104E50005B005B5A1A0013005B009B185B00524A10
:104E600099184C4B052218001FF055FA4949FB1DB3
:104E7000187801235B4200933223052212F032FAA4
:104E80004A49FB1D187801235B420093322301221B
:104E900012F028FA0D23FB1801221A704DE00E23A0
:104EA000FB181A780D23FB1818783E491300DB0015
:104EB0009B1A1B185B005B5A002B06D13C49354BF3
:104EC000002218001FF074F922E00E257B191A78D1
:104ED0000D26BB19187833491300DB009B1A1B18E9
:104EE0005B005B5ADB089BB21C007B191A78BB196C
:104EF00018782C491300DB009B1A1B185B005B5AC7
:104F00001A00072313402B49224822001FF050F9B2
:104F1000204B1800FBF702F903009AB21D49FB1D54
:104F2000187801235B420093322312F0DBF90D2144
:104F30007B181A787B1801321A700D23FB181B7826
:104F4000052BACD91C49FB1D187801235B4200934B
:104F50003223022212F0C6F90E217B181A787B1830
:104F600001321A70154B1B780E22BA1812789A4229
:104F700000D24FE71249FB1D187801235B420093D2
:104F80003223012212F0AEF9C046BD4605B0F0BD95
:104F900050960208400A0020649602086C960208A7
:104FA0007096020800000020609002087C960208BB
:104FB00080960208849602088C960208A0000020C1
:104FC0009096020890B587B002AF0200FB1D1A70E0
:104FD0003C4A3D4B110018001FF0EAF83A4B18000C
:104FE000FBF79CF803009AB23749FB1D18780123A0
:104FF0005B420093322312F075F90F23FB18012254
:105000001A703EE00E23FB1801221A702EE00F20CA
:105010003B181B785A1E2D4B5200D35A19000E24F0
:105020003B191B78013B802212021A4113000B40EE
:1050300016D03B181A783B191B78254922481FF0D7
:10504000B7F8214B1800FBF769F803009AB21E4924
:10505000FB1D187801235B420093322312F042F9C2
:105060000E217B181A787B1801321A700E23FB1858
:105070001B780A2BCBD90F217B181A787B180132A9
:105080001A70144B1B780F22BA1812789A42B9D9A9
:10509000114A0D4B110018001FF08AF80A4B180036
:1050A000FBF73CF803009AB20749FB1D187801236F
:1050B0005B420093322312F015F9C046BD4605B09D
:1050C00090BDC04694960208400A00209C2E002005
:1050D000B0960208A0000020C4960208F0B589B07E
:1050E00002AF0200FB1D1A701223FB1800221A8067
:1050F00012F0ACFC0300FB60FB6800221A70CA4B84
:105100001B781A00C949CA4B18001FF051F8C84A49
:10511000FB68110018001FF0D2F8C64B1B781A006C
:10512000C549C34B18001FF043F8C14AFB68110082
:1051300018001FF0C4F8C149BD480623009302239C
:1051400000221FF035F8BA4AFB68110018001FF062
:10515000B6F8BB4ABB49B64B18001FF029F8B44A51
:10516000FB68110018001FF0AAF8B74AB749B04B06
:1051700018001FF01DF8AE4AFB68110018001FF060
:105180009EF8B34AAA4B110018001FF011F8A84A64
:10519000FB68110018001FF092F81723FB1801227A
:1051A0001A7048E017243B191A78AA49A04B180036
:1051B0001EF0FEFF9E4AFB68110018001FF07FF8EA
:1051C0003B191B78A44AD35C042B27D89A00A34B25
:1051D000D3181B689F46A24A954B110018001EF079
:1051E000E7FF1CE09F4A924B110018001EF0E0FF01
:1051F00015E09D4A8E4B110018001EF0D9FF0EE0FD
:105200009A4A8B4B110018001EF0D2FF07E0984A13
:10521000874B110018001EF0CBFF00E0C046844A07
:10522000FB68110018001FF04AF817217B181A7844
:105230007B1801321A701723FB181B78052BB1D984
:105240008C4A7B4B110018001EF0B2FF784AFB68B5
:10525000110018001FF033F81623FB1801221A70F2
:1052600049E016203B181B785A1E834913005B0047
:105270009B185B015B58002B0DD13B181A787F49B6
:105280006B4B18001EF094FF694AFB681100180070
:105290001FF015F829E01626BB191C78BB191B78DE
:1052A0005A1E754913005B009B185B01CB1828330D
:1052B0001B6818000CF048FF03001D00BB191B7889
:1052C0005A1E6F4B9200D35818000CF03DFF03009C
:1052D0006C49574800932B0022001EF069FF544A86
:1052E000FB68110018001EF0EAFF16217B181A78DF
:1052F0007B1801321A701623FB181B78062BB0D9C5
:10530000FB681800FAF70AFF03001A00FB689A18F6
:105310005D4B1000190003231A001FF0F4F8FB681E
:105320001800FAF7FBFE03001A00FB689A18574BA7
:10533000100019001D231A001FF0E5F8FB68180083
:10534000FAF7ECFE02001223FB181A801523FB1853
:1053500001221A7023E0344B1B785A1E4C4B52002A
:10536000D35A190015203B181B78013B80221202EA
:105370001A4113000B400CD03B181A7845492C4BAE
:1053800018001EF015FF2A4AFB68110018001EF0D5
:1053900096FF15217B181A787B1801321A70152395
:1053A000FB181B78052BD6D91223FB181C88FB6829
:1053B0001800FAF7B3FE03009C420ED1FB681800F8
:1053C000FAF7ACFE03001A00FB689A18324B100083
:1053D000190005231A001FF096F8FB681800FAF769
:1053E0009DFE03001A00FB689A18274B1000190055
:1053F00003231A001FF087F8FB1D1B78002B0ED02B
:10540000FB681800FAF78AFE03009AB2F968FB1DE0
:10541000187801235B420093322311F063FFC046EA
:10542000BD4607B0F0BDC046A1000020E4960208CA
:10543000400A002000130020009702081C97020871
:105440003C97020848970208609702086C97020888
:10545000889702089C97020878100020A0980208FC
:10546000A4970208AC970208C4970208D0970208D4
:10547000EC9702080C9802088C2700202498020858
:10548000A81A0020409802088C960208709802081A
:105490009C2E0020909802089898020890B585B03C
:1054A00000AF78600E23FB1800221A700F23FB1840
:1054B00000221A704A4A7B6811001800FAF724FE8D
:1054C000031E03D1474B1B781BB285E0464A7B681D
:1054D00011001800FAF718FE031E01D1FF237BE02C
:1054E0007B681B78232B25D17B68013318001DF0C6
:1054F000D0FA02000E217B181A700A00BB181B7824
:10550000002B0AD0394B1B781100BA1812789A4236
:1055100003D87B181B781BB25EE0324B1B780E223F
:10552000BA1812789A4203D12E4B1B781BB253E063
:10553000662351E00F23FB1800221A701DE00F2490
:105540003B191A7813009B009B185B00284A9A1895
:105550007B6811001800FAF7D7FD031E07D17B689E
:105560001B78002B03D03B191B781BB234E00F21B2
:105570007B181A787B1801321A701C4B1B780F218C
:105580007A1812789A42DAD37B1800221A701DE03A
:105590000F243B191A7813009B009B185B00154AD7
:1055A0009A187B6811001800FAF7AEFD031E07D1A8
:1055B0003B191B781B021BB2FE2213431BB20BE0EC
:1055C0000F217B181A787B1801321A700F23FB18F1
:1055D0001B78092BDCD964231800BD4605B090BDAB
:1055E000B4980208A1000020B8980208A00000208A
:1055F0004C110020E0100020B0B586B000AF0200D2
:105600003960FB1D1A701323FB1800221A70002347
:105610007B6100237B610FE07B699A00404BD218CD
:105620003B6811001800FAF76FFD031E01D1062335
:1056300071E07B6901337B617B69032BECDD012326
:105640007B6112E07A6913009B009B185B00354A6E
:105650009A183B6811001800FAF756FD031E01D195
:10566000072358E07B6901337B612F4B1B781A00BD
:105670007B699342E6DB00237B6112E07A691300C9
:105680009B009B185B00294A9A183B681100180080
:10569000FAF73AFD031E01D107233CE07B69013391
:1056A0007B617B69092BE9DD214B224A1A6019E0F5
:1056B0001F4B1B681B681B68FB60FB681800FAF730
:1056C0002DFD0300BB60BA68F9683B6818001EF046
:1056D00011FE031E01D108231DE0154B1B685A68FB
:1056E000134B1A60124B1B68002BE1D1FB1D1A787B
:1056F00013009B009B185B000A4A9B183A68110034
:1057000018001EF0F8FE13257C19FEF719FC0300A3
:1057100023707B191B781800BD4606B0B0BDC0468B
:10572000689102084C110020A0000020E010002029
:1057300090130020C402002080B588B000AF0200A2
:105740003960FB1D1A701723FB1800221A70002302
:10575000FB610023BB610023FB6129E0FA691300B0
:105760009B009B185B005B4A9A183B68110018006D
:10577000FAF7CAFC031E18D1FB1D1B785A1E564BA4
:105780005200D35A1AB20121FB6999400B001BB297
:10579000134319B2FB1D1B785A1E89B24E4B52009F
:1057A000D1521723FB181B7890E0FB690133FB6192
:1057B000FB69092BD2DD0023BB610FE0BB699A00B6
:1057C000464BD2183B6811001800FAF79DFC031EE7
:1057D00001D106237AE0BB690133BB61BB69032BAE
:1057E000ECDD0123BB6112E0BA6913009B009B183A
:1057F0005B003B4A9A183B6811001800FAF784FCDA
:10580000031E01D1072361E0BB690133BB61354B46
:105810001B781A00BB699342E6DB334B334A1A60AC
:1058200019E0314B1B681B681B683B613B69180022
:10583000FAF774FC0300FB60FA6839693B681800EA
:105840001EF058FD031E01D108233FE0264B1B68C4
:105850005A68254B1A60244B1B68002BE1D10023AA
:10586000FB6118E01B49FA6913009B009B185B0061
:105870005B5C002B0CD1FA6913009B009B185B004A
:10588000144A9B183A68110018001EF034FE05E017
:10589000FB690133FB61FB69092BE3DDFB1D1B7811
:1058A0005A1E0D4B5200D35A1AB20121FB6999407E
:1058B0000B001BB2134319B2FB1D1B785A1E89B291
:1058C000054B5200D1521723FB181B781800BD4618
:1058D00008B080BDE010002070110020689102081F
:1058E0004C110020A000002094130020C4020020CE
:1058F00080B586B000AFB9607A6019000F23FB183D
:10590000021C1A700E23FB180A1C1A701523FB18B0
:10591000D94A12781A703B6A002B03D0D64B20224A
:105920001A7002E0D44B00221A702423FB181B7853
:10593000002B04D01623FB1822221A8003E0162322
:10594000FB1820221A807A6880231B059A4200D314
:10595000D5E07B68DAB2C94B1A70C84B0E217A18B1
:1059600012785A707B181B78082B00D9C6E19A0070
:10597000C34BD3181B689F46BB681B78DAB2BF4B7A
:105980009A700F23FB181B7803222021180005F0C2
:10599000DBFCB6E1BB681B785BB2DAB2B74B9A703E
:1059A0000F23FB181B7803222021180005F0CCFCE4
:1059B000A7E1BB681B889BB2DAB2B04B9A70BB6898
:1059C0001B889BB21B0A9BB2DAB2AC4BDA700F2376
:1059D000FB181B7804222021180005F0B5FC90E18B
:1059E000BB681B881BB2DAB2A44B9A70BB681B88D9
:1059F0001BB21B121BB2DAB2A04BDA700F23FB18DA
:105A00001B7804222021180005F09EFC79E1BB6878
:105A10001B68DAB2994B9A70BB681B681B0ADAB232
:105A2000964BDA70BB681B681B0CDAB2934B1A7189
:105A3000BB681B681B0EDAB2904B5A710F23FB1820
:105A40001B7806222021180005F07EFC59E1BB6876
:105A50001B68DAB2894B9A70BB681B681B12DAB2FA
:105A6000864BDA70BB681B681B14DAB2834B1A7161
:105A7000BB681B681B16DAB2804B5A710F23FB18E8
:105A80001B7806222021180005F05EFC39E1BB6876
:105A90001B78DAB2794B9A70BB6801331B78DAB2A3
:105AA000764BDA70BB6802331B78DAB2734B1A712B
:105AB000BB6803331B78DAB2704B5A71BB6804338E
:105AC0001B78DAB26D4B9A71BB6805331B78DAB27A
:105AD0006A4BDA71BB6806331B78DAB2674B1A720D
